:020000040800F2
:20000000780C002049010008F35200081D3F0008F1520008A5150008B55F00080000000010
:200020000000000000000000000000009F570008151A0008000000009D570008A15700088F
:20004000630100086301000863010008630100086301000863010008630100086301000840
:20006000630100086301000863010008E1150008630100086301000845190008511900088E
:200080005D19000869190008630100086301000863010008630100086301000863010008D0
:2000A000630100086301000863010008630100086301000863010008630100082D3F0008D8
:2000C000213F000863010008630100086301000863010008630100088D5F0008630100083C
:2000E0006301000863010008630100086301000863010008630100086301000863010008A0
:2001000063010008630100086301000863010008630100086301000863010008630100087F
:2001200063010008630100086301000863010008DFF810D000F0B8F900480047E5710008CA
:20014000AFF30080780C00200648804706480047FEE7FEE7FEE7FEE7FEE7FEE7FEE7FEE707
:20016000FEE7FEE71958000831010008202A04DB203A21FA02F00021704721FA02F3D0407A
:20018000C2F12002914008431946704740EA01039B0703D009E008C9121F08C0042AFAD208
:2001A00003E011F8013B00F8013B521EF9D2704780EA010210B502F00043400022D04A000E
:2001C0001FD0010E01EB1261C0F35600C2F3560240F4000042F40002A0FB022000047F39C7
:2001E000140400D0401C50EA124001D44000491EC2B20C0604EBD010401C4008802A02D03E
:2002000003E0002010BD20F00100002900DA0020184310BD30B480EA010202F0004530F00A
:20022000004221F0004013D090B1C30DD40DC2F31601C0F31600E41A41F4000140F4000257
:200240007D34914201D3641C00E04900002C02DA30BC002070474FF400000023914201D3C5
:20026000891A034340084FEA4101F7D151B1914202D14FF0004105E002D24FF0010101E007
:200280006FF0010103EBC450284430BC00F05EB896230022114600F062B800F0004220F01F
:2002A0000040C10DC0F3160040F400007F2901DA00207047962903DCC1F19601C84001E009
:2002C00096398840002AF4D0404270472DE9F05F0546002092469B46884606468146402492
:2002E0001BE02846414647462246FFF73FFF53465A46C01A914110D311461846224600F010
:2003000016F82D1A67EB01084F4622460120002100F00DF817EB00094E41201EA4F1010487
:20032000DFDC484631462A464346BDE8F09F202A04DB203A00FA02F1002070479140C2F105
:20034000200320FA03F31943904070470029A8BF7047401C490008BF20F00100704710B448
:20036000B0FA80FC00FA0CF050EA010404BF10BC704749B1CCF1200421FA04F411FA0CF1E6
:2003800018BF012121430843A3EB0C01CB1D4FEA00614FEA102042BF002010BC704700EBA0
:2003A000C35010440029A4BF10BC7047401C490008BF20F0010010BC7047F0B480EA0102B6
:2003C000D40F4200B2EB410F02D20246084611464A0042D0C30DDDB2C1F3C752AD1A202DAE
:2003E00035DAC1F3160141F4000204B15242C5F1200602FA06F12A411044B3EBD05F23D055
:20040000C4B1012DA0EBC35009DCF0BC4FF0004202EAC352DBB200F50000FFF7A0BF400071
:2004200000F1807000EBC350A0F1807040EAD170490009E0490841EAC071A0EBC35000F57F
:200440000000400800EBC350F0BCFFF77FBF6142012202EB4101001BF6E7F0BC704781F0B5
:200460000041AAE780F00040A7E710B541000CD0C0F3C751962908DC7E2909DC06DB41026C
:2004800004D000F0004040F07E5010BD002010BDC1F19604C4F1200100FA01F1E040FFF77C
:2004A00055FFA04010BD0000064C074D06E0E06840F0010394E8070098471034AC42F6D3D6
:2004C000FFF73AFEA0830008C0830008420005D0C0F3C7525242914201DC0020704700EB8F
:2004E000C1507047C10F80EAE0700844CA0796230021FFF734BF30B58C1810F8012B12F00B
:200500000F0301D110F8013B120906D110F8012B03E010F8015B01F8015B5B1EF9D101E0CD
:2005200001F8013B521EFBD1A142E6D3002030BD70B5044600688168C943C9071CD181682F
:2005400021F00101816002F06BFA05460FE000BF02F066FA401B022809D9A06A40F0100054
:20056000A062E06A40F00100E062012070BD20688068C043C007EBD0002070BDF8B5002659
:200580000446009600688168C943C90728D0816841F001018160134813490068B0FBF1F0AE
:2005A00000E0401E00900028FBD102F039FA054611E000BF02F034FA401B02280BD9A06AC6
:2005C00040F01000A062E06A40F00100E06284F824600120F8BD20688068C043C007E9D152
:2005E0000020F8BD3002002040420F0070B5254C0020022184F8FB0084F8FA0084F8F910F8
:20060000012584F8FD5042F6E061A4F8CE104FF4FA52A4F8DA2084F8FE005010A4F8D0008D
:200620004FF4C870A4F8CC005000A4F8E000A4F8E2102A0221461448FFF7A8FD124880F821
:20064000FA50124D29680C602A68A0F1CC01D1602A68AC3151602A681031916069680860B6
:20066000696800F58070C8606968AC304860696810308860286800F00BF86868BDE87040A6
:2006800000F006B838000020480600206082000810B5C36801684FF0FF3083F8900083F8AF
:2006A000980083F8970083F8950083F8960083F8920083F8930083F8940083F89100488968
:2006C000A3F88000012483F8A3404889A3F8560040204989C15203F12E0001F097F983F857
:2006E000A6404FF07A70986218624FF0617098610013A3F85C004142A3F85E10A3F86000DD
:20070000A3F8621042F6E060A3F864004142A3F86A10A3F86600A3F868101C7203F8024FCF
:200720009C7310BD2DE9F04FD0E90057D0E902B4397978798A00BB7902EB40029CB01A44CF
:20074000D2B2199209B1012200E0002200B1012042400BB1012000E00020424094F89A00B2
:2007600000B10120424094F89B0000B10120424094F89C0000B1012042404FF0000973D0A3
:20078000FE48199994F88F30014494F98E6091F88817C91A49B2012920D0491D1ED04FF0A3
:2007A000FF3100BF84F88E101999084490F8880784F88F00B4F98000A4F85600B4F88210B3
:2007C000411A09B2002901DA494209B2B5F904308B4205DC012184F8A91007E00121E1E701
:2007E000B5F906308B4201DB84F8A99094F8A91084F8A21094F98E30B34205D094F8A710EC
:20080000012641B100211EE0002639B1A989090191FBF0F116E0B4F98A1014E0B4F8841076
:20082000B4F886C0B5F80C806144B4F888C0844461440FFA81FC4FF6FF7101EA88010901CE
:2008400091FBFCF109B24B43A4F87A30A4F88200B4F88610A4F88410B4F88810A4F886108A
:20086000A4F8880084F8A760B5F90A1004F14003012000F098FE0E90B5F90A10814202DA25
:2008800000200F9006E0B4F97A000F90002801DA404200B2B5F9D4108246514503DC0120C6
:2008A00084F8A80005E0B5F9D210514501DB84F8A89095F8FB20D2B994F8A80010B194F8C5
:2008C000A200A0B10020159094F8A300089094F8A4000A90788846F64023000106B2B7F9C7
:2008E000080001015842994203DB009309E00120E9E78C46814201DC009002E00FFA8CF1C4
:200900000091B7F90A100901994205DA0B46814201DC034600E01BB29AB1B7F90E1095F82B
:20092000F8004143A1F5F0784FF4B451404606F079F84FF4B4714843A8EB0010800000B240
:2009400036E0159800B3B4F956200E98824200DC104694F98EC08949DDF86480BCF1010F3F
:2009600041440ED091F88817491C49B2800390FBF2F000FB0CF000B200EB813040F38F0095
:200980000FE091F98817F1E794F88E00199901287A48084416D090F88807401C40B2000316
:2009A00000B2002800DC0020C0EB001040F30F10169095F8F92094F990104FF0FF30022A41
:2009C00003D003E090F98807E9E7002084F89000814216D0A9B994F8981029B9A4F85290AE
:2009E000A4F87890A4F85490FF2184F89810A4F87C90A4F87E90A4F85290A4F85490A4F8A3
:200A00007890002873D195F8FA00B8B1012800984BD044F6E71148434B43991303EB9141DF
:200A2000C21341F38F3100EB524001EBE0304042B0F5004F12DB47F6FF7013E044F6E71140
:200A400000984B434843991303EB9141C21341F38F3100EB524001EBE030E9E7484988420C
:200A600000DA08460FFA80F8B42380220021169806F00AFD414931F9103001EB4000A4F8CC
:200A80007C30B0F96A11A4F87E1097F800C094F998204FF0FF30BCF1000F00D0002084F832
:200AA000980082422AD01AB328E0C01A4FF40041884201DB481E03E0314A904200DA104641
:200AC00044F6E7125043C21300EB524040F3CF38009818444042884202DB47F6FF7003E018
:200AE0002749884200DA084600B20090BCE744E0A4F85290A4F87890A4F85490E8BB1AB17B
:200B0000C4F83890C4F83C9001FB08F040F38F320098584340F38F30101A4FF4004290423B
:200B200001DB501E04E0DFF858C0604500DA6046ADF85C00009803FB08F3414341F38F3169
:200B400043F38F300844904202DB47F6FF7003E00B49884200DA0846ADF85E00B5F8EC1024
:200B600004F1380304F1520217A804F0DBF8B4F95200002800DA404204E005E0D07A0008D8
:200B80000080FFFFA4F8780094F8A30000287CD095F8FD00E8B394F89D00400701D5012094
:200BA00010E0B4F98C00002801DA404200B2397839B1B5F9DC20524503DDB5F9DE108142BA
:200BC000EDDB00208DF84C00199818B14946072826D000E00121002001EB40009DF84C10EF
:200BE00000EB810000F0FF0804F12E000090EA89298A5FEA080000D0012004F1A10300F0EE
:200C0000CEFE94F8A10004F12C0213A905F01BFF00E00FE09DF84C0020B18BF8068005E07E
:200C20000120D9E794F89D108BF806109BF8060084F89D0094F8A10080B9387870B1787828
:200C400060B14FF0000C00BF8DF84CC07878022802D095F8FC1021B1012303E04FF0010C3E
:200C6000F2E70023032802D195F8FC0090B1002294F89E10022079B194F89F800321B8F190
:200C8000010F11D084F8999000E0DFE0BCF1000F46D057E00122EBE7012184F89E1084F859
:200CA0009F0084F899904DE0BCF1000F05D084F8A090494684F89F001AE094F8A0C0BCF149
:200CC000010F0CD0BCF1020F19D04FF0010C84F899C052EA030835D084F8A0902BE084F8E1
:200CE00099007BBB84F8A0902AB100BF84F8A00084F8991026E084F8A01001200DE084F8E2
:200D00009910FAB984F8A090002BF4D0012184F8A01002E093B184F8A0C084F8990011E086
:200D200097F801C0BCF1010F01D003B952B14FF0010C84F89FC0002AECD0D7E784F8A0101F
:200D400084F899C095F8F9204FF47A504142022A03D0864222DD064623E0ADF868906A8AE2
:200D6000ADF86A20B5F8DA20ADF86C20B5F8CE20ADF86E20864201DD064602E08E4200DA20
:200D80000E4678781AA931F910007D21400190FBF1F080B2704340F30F3602E08E4200DADE
:200DA0000E4694F9971094F8990000B1012084F8970050B108B1A4F87460B4F9740000282E
:200DC00000DA4042A4F8760095E221B1012084F8A600C4F84890B4F98C000003010102D570
:200DE00040F0784101E020F0784194F8A6608DF84C6084F8A6900EB10A4600E0A26C50425C
:200E0000030102D540F0784001E020F078402B6883420ADB5B425FEA031C02D543F078435F
:200E200001E023F07843984200DA18461044020102D540F0784001E020F078400EB1A1646E
:200E400000E0A0640013A4F87400B6E794F8A400F0B395F8FE00E0B3002E01DA704206B28A
:200E6000B5F9E000B04201DA064604E0B5F9E210B14200DD0E46B5F8E210B5F9D620401A86
:200E8000711A09B2C90300B291FBF0F080B2524501DA114605E0B5F9D8105346514500DCA1
:200EA0001946B5F8D830C91AD21A09B212B2C90391FBF2F189B2884201D3814200D20846D9
:200EC00095F8F910022912D0B5F9CC10414301E0DDE002E0C813A4F8720095F8F92094F9C5
:200EE00095104FF0FF363046022A03D003E0B5F9D010EBE7002084F89500814202D009B999
:200F000084F8966000287DD1688AA4F85C004042A4F85E00B4F95A00002801DA404200B245
:200F2000B5F87220B5F970102D23521A92B206F0ABFA05EB4000808AA4F860004042A4F855
:200F40006200B5F9CE00A4F86400B4F872100904B1F1004F01D1421C08D091FBF0F00028EB
:200F600001DA002004E0B0F5803F01DB4FF6FF7080B2312340F21F52002106F093FAF84990
:200F800001EB4000B4F96410B0F812074843001441420AB2A4F86600A4F86820314694F83C
:200FA000996094F99630012E06D0022E34D0032E34D084F8961064E0002184F896102BB1F2
:200FC0004FF07A72C4E90992C4E9079204F1240104F17002CDF80090CDE90121B4F8781076
:200FE000B5F8E420401AB5F8F2104E4600B2B4F97630DA3503F04AFD04F11C0004F16E01E0
:20100000009600E083E0CDE901106A89A98BB4F9763035F8DA692FE0012100E0022184F896
:201020009610012902D002292BD10FE0B4F95210814204DC914201DA104600E00846401ABA
:20104000B5F8F21000B2484360641AE0994203D04FF06171C4E9059104F1140004F16C0179
:20106000CDF80090CDE90110B4F96030B5F8E420B5F8F610B5F8DA60A6EB0A0000B203F08C
:2010800005FDB4F864004042A4F86A0033E194F8A500E0B395F8F92094F992104FF0FF3893
:2010A0004046022A00D1002084F89200814204D019B984F8938084F8948040BB94F89920B7
:2010C00094F99310012A13D0022A05D0032A05D0032084F89300EFE0012000E0022084F82F
:2010E0009300012831D002287ED0032829D1E3E084F89300B4F97610B4F97000814200DAD7
:201100000846B4F96E10814200DC084600E0F2E0B4F97410002901DA414605E002DD4FF0F8
:20112000010101E04FF0000100FB01F0B4F9601000B2814203DBB4F96210814202DDA4F8D3
:20114000581097E0A4F8580094E0884203D084F8099001202072288995F8FC10000100B2E6
:2011600019B3002821D012DDB4F86010ADF85C10B4F97410B4F96220914202DDADF85E1049
:2011800001E0ADF85E2095F8FC1089B112E0B4F96020B4F974108A4202DAADF85C2001E07E
:2011A000ADF85C10B4F86210E8E7B4F86010F7E7B4F974000F99401AB0F5004F02DB47F606
:2011C000FF7003E06749884200DA0846BDF95E100DF1040C261D04F15803626C8CE84E00C6
:2011E000BDF95C10009100E009E0B4F98C30B5F8F420B5F8EA1000B204F04FFA3AE08842CF
:2012000003D084F803900120A070B4F96C10B4F96630484202B2B4F97400984203DCB4F98A
:201220006830984200DA1846B4F95230C01AB0F5004F02DB47F6FF7003E04A4B984200DA52
:201240001846B4F960308B4200DA1946B4F96230934200DB1A4604F15803CDE903348DE8EC
:201260000602B4F98C30B5F8F020B5F8E81000B204F095F994F99410159A02B3002084F836
:20128000940019B184F8119001202074B4F87200B4F96410404200B2814203DBB4F96A10E3
:2012A000814200DD0846B4F95410401AB0F5004F08DB47F6FF7009E0B4F8740042E784F8A4
:2012C000948018E02749884200DA084604F10C0104F15A02B4F95E60CDE90321CDE90169E8
:2012E000B4F95C100091B5F8EE20B5F8E610002300B204F0D5F895F8F92094F991104FF03D
:20130000FF30022A08D0B4F9746000BF84F8910081420BD021B109E0B4F958600020F5E793
:20132000A4F84C90A4F84E90A4F8509078BBB4F95A20B4F97EC0B4F97C3002FB0CF040F375
:201340008F31B4F958004FF4004900FB03F848F38F38A1EB0801494506DB47F6FF7108E0AB
:20136000D07A00080080FFFFDFF82C82414500DA41465A4300FB0CF042F38F3240F38F30B5
:2013800010444B46984203DB47F6FF7004E072E0814A904200DA104643F26D72504309B29F
:2013A00001EBD1724FEAA03C42F34E0200EB9C40C2EBA030984202DB47F6FF7003E0764A1A
:2013C000904200DA104600B20A1852424A4502DB47F6FF7203E0704B9A4200DA1A460B4684
:2013E000814200DB034612B2934200DB13468C46814200DC8446944500DC94466344CC46B6
:20140000634502DB47F6FF7304E0DFF88C81434500DA43465B10C91A614502DB47F6FF7167
:2014200004E0DFF87481414500DA4146DFF86C81C01A01FB08F10914A4F84C10604502DBEB
:2014400047F6FF7003E05449884200DA0846534948430014A4F84E00D01A484502DB47F6B8
:20146000FF7003E04C49884200DA08464B4948430014A4F85000159828B195F8F90002283E
:201480000AD001280FD046491998084490F98807052839DD05203AE0B4F94C10B4F94E2020
:2014A000B4F9500042E095F8FE00A0B1B4F8720094F98E104843169901EB800003B24FF44A
:2014C000B441184605F0AEFA4FF4B4714843A3EB801000B200E01698B4238022002105F03C
:2014E000D3FF2F4901EB4000B0F9D412B0F93E2471437243B0F9A80541F38F31704342F341
:201500008F3240F38F3011E0002800DA002000EB4000084490F9761790F9772771437243E8
:2015200090F9780709B2704312B200B20B11ABF800301211ABF80220397984F89A1079791E
:2015400084F89B10B97984F89C100E99A4F88010A4F88AA094F8A51084F8A310089984F8E4
:20156000A4100A9984F8A510A4F88C600111ABF804100F980111ABF8081016988111ABF83B
:201580000A10B4F85210ABF80C10B4F85410ABF80E101CB0BDE8F08F0080FFFF9C27010061
:2015A000D07A0008FEE70AB1002201E0B3F90020104400B2884201DA188070471980704720
:2015C00010B5029C0AB1002200E02288104480B21880884201D2208010BD218010BD0000AB
:2015E0002DE9F041C74902204860C74CC74DE08AB0F5FA6F33D2401CE082A888B4F9181063
:20160000084400EBD07040102083E888B4F91A10084400EBD070401060832889B4F91C10E5
:20162000084400EBD0704010A0836889B4F91E10084400EBD0704010E0836888B4F92010FD
:20164000084400EBD070401020842888B4F92210084400EBD07040106084BDE8F081206B44
:201660004FF47A71B0FBF1F201FB120048B9A889A54A40F28F21343205F0EEF9606B00147C
:20168000A084A888218B081A6081E888618B081AA0816888218C081A00B2E0812989A28BF7
:2016A000511A21826989E28B511A61822988628C511A09B2A182002800DA4042B4F908301E
:2016C000934A984240DC6079E0B3106840F400401060002900DA49428E48994238DC617942
:2016E00089B3016841F400410160206B401C2063217889480125002659B1226B41F28833C9
:20170000B2FBF3F36278521CB3FBF2F702FB173212B3E17821B10022102101F07CF9E67012
:201720007E4890F8F900022833D0E684E079002893D1E57160797A4DDFF8E88178B3A87964
:2017400050B32CE000E003E0106820F40040BFE7016821F40041C7E7E2784AB9E57022798B
:20176000521CD2B22271A3789B1C9A4200D92571226BB2FBF1F301FB13210029D0D1227914
:20178000A1788A4201D90029CAD1102101F03FF9C6E76E20E084C9E798F80600B0B30027FD
:2017A0006148A771016841F340120168006841F3801140F3C0135D4807705D4F97F800C0C6
:2017C00080F801C0D4F828C0A0F802C0521C0271491C41715B1C837161890181A189418107
:2017E000E189818153480068FEF79CFFB5F90030B4F92620B5F90210B5F90450C2F5FA6046
:2018000003F57A73984204DA034605E0FFE70127C6E7934200DA1346DFF8F4C09BB2ACF1C5
:20182000100CCCF8003001F57A71884201DA014602E0914200DA1146354B89B20C3B19606A
:2018400005F57A71884201DA014602E0914200DA11462F4889B2083801603748816882682C
:2018600041F38021806842F3C02340F300323348A57905703D784570E56A4580491C0171CB
:201880005B1C4371521C8271218A0181618A4181A18A81812A480068FEF744FFB8F90010E2
:2018A000B4F92620B8F90250B8F90430C2F5FA6001F57A71884201DA014602E0914200DAE0
:2018C0001146144F89B2103F396005F57A71884201DA014602E0914200DA11460D4D89B2DF
:2018E0000C3D296003F57A71884201DA014602E0914200DA114688B2064908390860E671D8
:20190000ABE600000000024000000020C004002044340140442C01400008014038000020E5
:201920003806002004080020080C014028060020D10100206082000800100140F407002032
:2019400064820008014800F00DBD000018050020014800F007BD0000D4040020014800F02B
:2019600001BD0000B0030020014800F0FBBC0000F403002030B590F840500124AC40C56B91
:201980006C60046863604368102B036803D099600068C26030BD9A600068C16030BD2DE932
:2019A000FE411646099C88461D460746224602A905F049F8A0798FB130BB201D009001AB63
:2019C0009DF8082041460120FFF7FAFDBDF80410414501D8A07998B1012011E0A0B1A01C0C
:2019E000009001AB9DF8082031460120FFF7E8FDBDF80400B04202D8A0790028ECD10020D8
:201A00002870A071BDE8FE81C0B2F9E70022828042807047704700000C490A880C49098886
:201A200060B1012810D14EF6EE6009B11AB107E0824209D006E0814204D005E022B109B101
:201A4000AB2070474020704700207047000001080000020810B586B0134C00200121CDE9B1
:201A6000024104900090204600F098F928B904A9684600F023FE002814D1002213462146DC
:201A8000012000F079FE00280CD108480290084800F084F928B904A9684600F00FFE0028B9
:201AA00000D1002006B010BD0000010800800108000002082DE9F04F85B000245C4D049427
:201AC000661E29882746DFF86CA1BAF800004FF00108CDE90258DFF86091584B584A4FF624
:201AE000FF7C009400296AD0A1F6EE61B1F5604122D001F6EF61B1F5005F1AD140B1A0F598
:201B00006E41EE3915D1284600F048F938B10CE0284686E004A9684600F0D0FD49E004A9D3
:201B2000684600F0CBFD002846D10022134651463CE0FFF78FFF3CE040B16045F9D150463C
:201B4000CDF8089000F02AF938B32CE09B46EA883BF81400824200D126B2B4420CD03849C4
:201B600000F0CCF8012807D035493BF81400098800F0E8F800281FD1641CA4B2132CE6D3A5
:201B8000002213462946012000F0F6FD002813D1CDE902985046009743E004A9684600F060
:201BA0008DFD002808D1002213462946012000F0E3FD002800D1002005B0BDE8F08F0028A5
:201BC000B7D0604503D15046CDF8089029E099464FEA020BBAF8061039F81420914200D113
:201BE00026B2B4420DD01649104600F087F8012807D039F81400BBF8001000F0A3F800285B
:201C0000DAD1641CA4B2132CE4D3002213465146012000F0B1FD0028CED1CDE90258284637
:201C2000009700F0BBF800283FF474AFC3E700000000010800000208008001080402002080
:201C40004A0100202DE9F047002486B0264D074688462E46A14620460494FFF7DDFE402852
:201C600004D028B1AB2006B0BDE8F0871F4D00E01F4E4EF6EE6200233146012000F07CFDA9
:201C80000028F0D14146384600F05CF80028EAD1DFF86080DFF860A038F81420BA420DD064
:201CA0001549104600F02AF8012807D038F81400BAF8001000F046F80028D4D1641CA4B287
:201CC000132CE9D30120CDE9025004A9CDF80090684600F0F3FC0028C5D1002213463146A1
:201CE000012000F049FDBEE7000001080080010800000208040200204A0100202DE9F04174
:201D000006460D4601240D4F0020FFF785FEAB2812D00B4A07EBC02102EBC022891C08E0D1
:201D20001088B04204D132F8020C2880002402E0121F8A42F4D82046BDE8F0810000010810
:201D4000FE07010870B506460D46124C0120FFF763FEAB280CD0104904EBC02401EBC02034
:201D600003E02168491C04D0241D8442F9D3802070BD2A4600232146012000F0FDFC0028F2
:201D8000F6D1A11C3246BDE870400023012000F0F3BC000000000108FF07010810B5012110
:201DA0004FF6FF74054B05E00288A24201D0002102E0001D9842F7D9084610BDFF07010803
:201DC00070B50C460546FFF7BDFF802805D121462846BDE87040FFF735BF70BD0649002061
:201DE000C8610648016941F004010161016941F04001016170470000580800200020024093
:201E0000064A0021D16106490A6942F002020A614861086940F04000086170475808002092
:201E200000200240044B0022DA61044A136943F00103136101807047580800200020024005
:201E400014480022C168CB06134904D5CA6942F00202CA611022C3685B0705D5CB6943F041
:201E60000103CB6142F00402C369DB0707D0CB6943F00403CB61C16921F00101C161A2F585
:201E80008071013901D0C2607047C16921F00101C1617047002002405808002070B5054605
:201EA00000F0BEFD0646114C09E0681C07D025B100F0B6FD801BA84201D9032070BDE0681A
:201EC000C007F2D1E068800601D52020E060E068C00605D4E069C00702D1E068400703D523
:201EE000FFF7AEFF012070BD002070BD0020024010B590F8242000238CB0012A18D001221C
:201F000080F82420114A009202689468E443E40711D0009CA468E443E4070CD00C4CA242ED
:201F200009D15468096824F470240C43546007E002200CB010BD816A41F020018162012315
:201F4000002180F824101846F3E700000028014000240140F8B50024009490F82420254612
:201F6000012A12D0012280F824204A681F23072A0DD20668776B521E02EB820293409F438B
:201F80000B6893401F43776319E00220F8BD06680D2A0AD2376BD21F02EB820293409F43B5
:201FA0000B6893401F43376309E0F76A0D3A02EB820293409F430B6893401F43F7620A68B5
:201FC000072306680A2A0AD3F7680A3A02EB420293409F438B6893401F43F76008E03769C8
:201FE00002EB420293409F438B6893401F4337610A68102A01D0112A20D1124B02689A42EF
:2020000017D193681B0219D4936843F4000393600968102912D10C490C4A0968B1FBF2F173
:2020200001EB8101490000E0491E00910029FBD104E0816A41F020018162012480F8245007
:202040002046F8BD002401403002002040420F002DE9F04104004FF000057FD0A06A00260F
:2020600028B9E66284F82460204600F081F82046FEF75EFAA16AC90600D420B1A06A40F0FC
:202080001000A0626AE0A16A21F4885141F00201A162334923688B42E16904D1B1F5402FAC
:2020A00001D14FF40021E7684FF4807C41EA470261680A43A168614508D0012906D000212A
:2020C000D4F814E0BEF1010F02D00AE06146F7E7C7B1A76A47F02007A762E76A47F00107C0
:2020E000E7625F6827F469470F435F60236899681C4F394011439960A16861450BD0012983
:2021000009D00CE0DFF860E0A7690EEB47370F4347F40061E5E7218A0D05A5F5801521682D
:20212000CB6A23F470032B43CB62216889680F4B1940914208D1E662A16A21F0020141F0D4
:202140000101A162BDE8F081A06A20F0020040F01000A062E06A40F00100E0620120F1E750
:20216000003C0140FDF7E1FF00E0FFFFFE0E1FFF7047000070B5044690F8240001280DD02E
:20218000012084F824002046FEF7F8F902004FF0000005D084F82400104670BD022070BDAA
:2021A000A16A40F20123994341F48071A1621F4D23681F49AB4218D10E6816F4702F14D081
:2021C000A66A46F48016A6620E68760505D5A66A26F4005646F48056A662A66AF6040AD5CB
:2021E000E66A26F00606E66206E0A66A26F48016A6625E68E9E7E06284F824006FF002009E
:20220000186020688368C3F34243072B05D1A84208D1096811F4702F04D0816841F4801135
:202220008160B9E7816841F4A001F9E700280140042401402DE9F05F90F82110002402293F
:2022400003D004218163012485E001680A6822F00E020A6001680A6822F001020A603F4ECA
:202260003E4FB215DFF8F4C0DFF8F090DFF8ECA0DFF8E8B0DFF8E4E00168783F1301150270
:20228000ACF1640CA9F15009AAF13C0AABF1280BAEF1140E4FF48018B14227D9B9420ED026
:2022A000614512D049451DD0514518D0594518D0714501D1424615E0294EB14201D10122B3
:2022C00010E0274E1436B14201D110220AE0244E2836B14206D0224A3C32914201D11A46F6
:2022E00000E02A461E49091F0A602BE0B94213D0614517D0494522D051451DD059451DD091
:20230000714501D142461AE0B14202D14FF0807215E0134EB14201D1012210E0104E1436E6
:20232000B14201D110220AE00D4E2836B14206D00B4A3C32914201D11A4600E02A460749D2
:2023400080394A60012180F82110002180F82010416B01B188472046BDE8F09F80000240FD
:20236000080402402DE9F05FC16B0A6801680B68046C4FF0040808FA04F8844D844E854F00
:20238000DFF814C2DFF81492DFF814A2DFF814B2DFF814E218EA020F65D05FEA437862D599
:2023A0000A68920603D40A6822F004020A60DFF8F0814FF48062016808F114081301140233
:2023C000414524D9A9420DD0B1420FD0B9421AD0614515D0494515D0514501D1120312E08E
:2023E000594501D104220EE0714501D140220AE06D4D1435A94206D06B4A2832914201D10D
:202400001A4600E022466749091F0A6029E0A94213D0B14215D0B94220D061451BD0494519
:202420001BD0514502D14FF4800217E0414502D14FF0806212E0594501D104220EE07145E6
:2024400001D140220AE0584D1435A94206D0564A2832914201D11A4600E022464B49083993
:202460004A60C16A71E04FF0020808FA04F818EA020F70D05FEA83786DD50A68920606D432
:202480000A6822F00A020A60012180F82110DFF810814FF40072016808F1140813011402B2
:2024A000414524D9A9420DD0B1420FD0B9421AD0614515D0494515D0514501D1120312E0AD
:2024C000594501D102220EE0714501D120220AE0354D1435A94206D0334A2832914201D1BE
:2024E0001A4600E022462F49091F0A6029E0A94213D0B14215D0B94220D061451BD0494571
:202500001BD0514502D14FF4001217E0414502D14FF0007212E0594501D102220EE07145E7
:2025200001D120220AE0204D1435A94206D01E4A2832914201D11A4600E02246134908397A
:202540004A60002180F82010816A00291CD0BDE8F05F0847FFE70825A540154214D01A0771
:2025600012D50A6822F00E020A6090F84020C36B012101FA02F25A60816380F821100021E7
:2025800080F82010016BE0E7BDE8F09F080002401C000240300002404400024058000240F2
:2025A0006C000240080402401C04024030B560B11C4A03681421934209D21B4A1A44B2FBA1
:2025C000F1F18900016419490AE0012030BD154A52421A44B2FBF1F1890001641149083968
:2025E000C163022180F821101A6843F6F0718A43F0E901142143D0E902452C432143046970
:202600002143446921438469214311431960002141628162C1620163416301224277017701
:20262000084630BD08040240F8FFFDBF0000024070B5044690F82000002501280CD00120BA
:2026400084F8200094F821600020012E06D084F820000225284670BD022070BD022684F85B
:202660002160A0632068066826F0010606602046FFF780F9E06A00282068016802D041F022
:202680000E0106E021F0040101602068016841F00A0101602068016841F001010160D9E7FB
:2026A00031B500F0BDF9009C0546601C00D0641C00F0B6F9401BA042FAD338BD2DE9F047F0
:2026C000054626480F460126017E01290FD00121814601762868DFF888804CF25034022882
:2026E00008D0A2462046FFF7D9FBA8B131E00220BDE8F0872046FFF7D1FB08BB0120FFF740
:202700006DFB2046FFF7CAFBD8F81010064621F00401C8F810101CE04FF0FF303860AC68E8
:2027200011E02046FFF76CFB5046FFF7B7FBD8F81010060021F00201C8F8101001D03C6050
:2027400007E004F50064D5E9020100EBC120A042E7D8002189F818103046C9E75808002097
:20276000002002400348016941F080010161002070470000002002402DE9F05F07461C48DF
:2027800088460024017E15461E46012909D00121814601764CF2503A5046FFF77FFB18B10F
:2027A00022E00220BDE8F09F012F02D0022F00D00427D346DFF83CA0220128463146FDF7CB
:2027C000D5FC81B208EB4400FFF72CFB5846FFF765FBDAF8102022F00102CAF8102018B9D3
:2027E000641CE4B2BC42E7D3002289F81820D9E7580800200020024005480169090605D5EE
:20280000044941600449416000207047012070470020024023016745AB89EFCD2DE9F84FAE
:20282000DFF8B8A100220AF1040B144601274FF00F090BF1040E00BF0B6807FA04F52B40BE
:20284000AB4274D1DFF898C14E68A6EB0C0866452BD00DDC032E34D005DC36B3012E19D015
:20286000022E2FD11BE0112E16D0122E2AD119E0B8F5881F19D006DCB8F5803F15D0B8F5B7
:20288000801F1FD111E0B8F5001F0ED0B8F5041F18D10AE0CA6815E0CA68121D12E0CA68BF
:2028A00008320FE0CA680C320CE08A682AB1012A4FF0080203D0456104E0042202E0056187
:2028C00000E00022FF2B01D8064601E000F104064FEA840501D9A5F12005D6F800C009FAE3
:2028E00005F82CEA080C02FA05F54CEA050CC6F800C04D68ED006AD53A4DAE6946F001063A
:20290000AE61AD6924F0030605F001050095364D06EB050CDCF80850A6074FEA167809FABD
:2029200008F6B543314EB04202D100261AE04EE02F4EB04201D1012614E02E4EB04201D173
:2029400002260FE02C4EB04201D103260AE02B4EB04201D1042605E0294EB04201D105265D
:2029600000E0062606FA08F62E43CCF808604D68DAF80060ED03554601D51E4300E09E4346
:202980002E604D68AD0305D5DBF800601E43CBF8006004E0DBF800509D43CBF800504D6804
:2029A000DEF80060ED02754601D51E4300E09E432E604D68AD0205D5084D0C352E681E43E6
:2029C0002E6004E0054E0C3635689D433560641C102CFFF431AFBDE8F88F000000040140DE
:2029E00000001110001002400000014000080140000C01400010014000140140001801408E
:202A0000001C01408068084000D001207047C2684A40C26070470AB1016170470904FBE731
:202A200001480068704700002C0200207047704770B5044600684569466830490D420DD09A
:202A4000F1050BD5216C41F0010121646FF4807141612068016841F40041016015F4813FD4
:202A600009D0F00507D5206C40F00200206421686FF40070486115F4823F28D0F00526D5B3
:202A800094F83E30628D94F83D00216B202B08D13AB921280ED029280CD0282801D1212921
:202AA00008D0206C40F00400206494F83E00102804D008E0204601F045FE08E020680168C9
:202AC00041F40071016021686FF48060486115F4843F09D0F00507D5206C40F008002064BC
:202AE00021686FF400604861206C002804D02046BDE8704001F048BA70BD0000000101007C
:202B00002DE9F05F02680446D2F818805569566890F83E007449DFF8D0A1DFF8CCB1DFF8C8
:202B2000CC918F1C0AF17E0A0BF13E0B102812D0402810D00D425BD0B00559D593692046A4
:202B40000021DB435B0700D501219269D243120648D5828947E015F0011F05D0B00503D5DF
:202B6000204601F0C2FD10E05F48801D054205D0B00503D5606CC0B2106106E00D4204D0AA
:202B8000B00502D5204601F023FD18EA090F14D015EA0A0F08D0700506D53D4206D1204638
:202BA000BDE8F05F01F090BC3D421FD0B0051DD52046BDE8F05F01F047BC15EA0B0F08D090
:202BC000700506D53D4206D12046BDE8F05F01F02BBB3D420AD0B00508D52046BDE8F05FD9
:202BE00001F0BEBA028B92B2FFF721FFBDE8F09F3D480E30054206D0B00504D52046BDE8D8
:202C0000F05F01F0E1BD18EA090F4FF0280134D015EA0A0F23D0700521D53D4221D194F8DD
:202C20003D302046628D002AE0D0426A541C4462046812782261428D521E4285428D002ABE
:202C4000D4D1292BD2D10268536823F4806353602122026380F83D1000F07CFAC6E73D4207
:202C6000C4D0B005C2D5608D0028BFD0606A411C616221680078086131E015EA0B0F22D060
:202C8000700520D53D4220D194F83D302046648D002CABD01469426A551C45621470428DCF
:202CA000521E4285428D002AA0D12A2B9ED10268536823F4806353602222026380F83D106F
:202CC00000F047FA92E73D4290D0B0058ED5608D00288BD01169606A421C62620170608D1F
:202CE000401E608582E7000002000100040010007047000070B5040004D094F83D0000256F
:202D000010B106E0012070BD84F83C50204600F01FFA242084F83D002068016821F0010146
:202D2000016000F0ABFB33492268B0FBF1F15160314A6368934206D94FF4967359434FF433
:202D40007A73B1FBF3F12368491C1962616891420BD84900B0FBF1F2C2F30B02042A01D272
:202D6000042019E0B0FBF1F016E0A3689BB301EBC10202EB0112B0FBF2F242F4804212050E
:202D800030D04BB301EBC10202EB0111B0FBF1F040F4804040F400402168C861D4E907011C
:202DA000084321680860D4E90310084321688860D4E9050108432168C8602068016841F06A
:202DC000010101602564202084F83D00256384F83E50002070BD00E006E001EB4102B0FB8F
:202DE000F2F2CCE70120D7E701EB4101B0FBF1F0D0E7000040420F00A086010070477047C6
:202E0000704700002DE9F84F1F4690468A460446DDF82890FFF704FE054694F83D00202868
:202E20007ED11923012278492046009501F061FD0028F5D194F83C00012871D0012084F81C
:202E40003C0020680168C90703D1016841F0010101602068016821F400610160222084F81E
:202E60003D00102084F83E0000262664C4F8248067856648E062608D20852B464A46514615
:202E8000204601F028FA28B1206C84F83C60042850D073E0208D5E4F68B1012814D00228F3
:202EA000206801681ED041F48061016020684169806900909AE02068416981690091016881
:202EC00041F40071016091E02068016821F48061016072B62068416981690091016841F4BF
:202EE00000710AE041F40061016072B62068416981690091016821F48061016062B675E07E
:202F0000032850D801280CD002284B464FF0000239462046009512D001F0EBFC70BB13E00B
:202F200070E02A464946204601F058FD28B1206C202823D00120BDE8F88F20684BE001F005
:202F4000D8FCD8B972B61BE02068016821F48061016072B620680169606A421C626201702A
:202F6000208D401E2085608D401E60854B46002239462046009501F0BCFC08B10320DAE7FE
:202F80002068016841F40071016020680169606A421C62620170208D401E2085608D401EEF
:202FA000608562B6C9E72A464946204601F016FD0028BCD120680169606A421C62620170F7
:202FC000208D401E2085608D401E608520684169C94349070AD40169606A421C62620170DE
:202FE000208D401E2085608D401E6085208D002886D1202084F83D0084F83E6084F83C609A
:20300000002098E7022096E7020010000000FFFF040001002DE9F84F1F4690468A460446AB
:20302000DDF82890FFF7FCFC064694F83D0020287ED11923012243492046009601F059FC3C
:2030400000287DD194F83C00012879D0012084F83C0020680168C90703D1016841F00101B6
:2030600001602068016821F400610160212084F83D00102084F83E0000252564C4F8248035
:2030800067853148E062608D208533464A465146204601F08FF928B1206C84F83C500428DF
:2030A0004CD00DE0206841698069009030E032464946204601F0C3FC28B1206C042838D096
:2030C0000320BDE8F88F606A411C6162216800780861608D401E6085208D401E80B220853B
:2030E00021684A69D24352070BD450B1606A421C626200780861608D401E6085208D401E3E
:20310000208532464946204601F0CCFB0028D4D1208D0028CBD154F83D0B016841F4007104
:203120000160202004F81E09E57765770020C8E706E02068016841F4007101600120C0E71E
:203140000220BEE7020010000000FFFF70477047704770477047000002480168491C01608C
:20316000704700002C020020074810B5016841F010010160032000F049F8002000F006F8C8
:2031800000F018F8002010BD0020024010B5044607484FF47A710068B0FBF1F000F053FB22
:2031A00000222146501E00F011F8002010BD000030020020704700F01F02012191404009DC
:2031C000800000F1E020C0F800117047F0B40E4B1B680C46C3F30223C3F10705042D00D987
:2031E0000425191D072901D2002300E0DB1E012606FA05F1491E214099409E40761E1640EB
:203200003143F0BC02F076B80CED00E0064900F0070208684FF6FF03184040EA0220034AA5
:2032200010430860704700000CED00E00000FA052DE9F84305460078354CC00754D0E0697B
:203240000026C00008D4E06940F08050E061E069012600F0805000902E480168C90512D4CF
:203260000168804641F480710160FFF7D9FB074605E000BFFFF7D4FBC01B642823D8D8F8E6
:203280000000C005F6D5206A10F4407021D0A98801F4407181421CD0206A1F49012220F4C0
:2032A00040700A6000220A602062C00711D0FFF7B7FB074641F2883808E000BFFFF7B0FB0E
:2032C000C11B414502D90320BDE8F883206A8007F4D5206A696820F44070084320621EB1D9
:2032E000E06920F08050E0612878800705D56068A96820F44040084360602878C00605D5AB
:203300006068696920F48000084360600020DBE70010024000700040400442422DE9F0477B
:20332000DFF83C8105460E46D8F8000000F00700B0420CD2D8F8001021F007013143C8F896
:203340000010D8F8000000F00700B04263D12878444C800705D56068A96820F0F0000843BB
:2033600060602878C00745D06868012816D02168022816D0890700294DDA616821F00301DB
:2033800001436160FFF74CFB6968074641F2883001290FD00229814619D027E021688903E2
:2033A000E9E78901E7E700BFFFF73AFBC11B494501D918E081466068C0F381000128F3D10F
:2033C00018E000BFFFF72CFBC11B49450BD86068C0F381000228F5D10CE000BFFFF720FB24
:2033E000C11B494502D90320BDE8F087606810F00C0FF3D1D8F80010404601F00701B14250
:203400000BD9016821F0070131430160006800F00700B04201D00120E6E72878400705D5A0
:203420006068E96820F4E060084360602878000706D56068296920F4605040EAC1006060C9
:2034400000F03CF86168084AC1F30311515CC840064908600020FFF799FE0020C4E7000081
:20346000002002400010024068820008300200200148006870470000300200200448054900
:2034800000684968044AC1F30221515CC84070473002002000100240788200080448054942
:2034A00000684968044AC1F3C221515CC840704730020020001002407882000810B512A382
:2034C00085B00FCB8DE80F0013A0144B006804905A68134802F00C0104290FD008290DD114
:2034E000C2F38344D2031DF8041009D55A6804ABC2F340429A5CB0FBF2F0484305B010BD3C
:2035000008484843FAE7000002030405060708090A0B0C0D0E0F1010010200000010024003
:2035200000127A0000093D002DE9F84F04460078B94DC00748D06868C0F38100012807D0B1
:203540006868C0F38100022809D16868C00306D52868800338D5606800286FD034E06068CA
:20356000B0F5803F0BD010B1B0F5A02F11D0286820F480302860286820F4802002E0286864
:2035800040F480302860606888B1FFF749FA064609E0286840F480202860F0E7FFF740FA5D
:2035A000801B642875D828688003F7D50CE0FFF737FA064605E000BFFFF732FA801B64286C
:2035C000F0D828688003F7D42078944E80074FF001094FF000083BD5686810F00C0F07D0E2
:2035E0006868C0F38100022809D16868C00306D42868800714D5206901281FD110E020693B
:20360000B0B1C6F80090FFF70BFA074605E000BFFFF706FAC01B0228C4D828688007F7D595
:203620002868616920F0F80040EAC10028600FE0C6F80080FFF7F4F9074606E0E9E000BFEA
:20364000FFF7EEF9C01B022823D828688007F7D4207800072CD57248A169D9B1C0F8009075
:20366000FFF7DEF9074604E0FFF7DAF9C01B02280FD8686A8007F7D56A484FF4FA510068CA
:20368000B0FBF1F0009000BF0098411E0091FAD20EE080E0C0F80080FFF7C2F9074604E093
:2036A000FFF7BEF9C01B022875D8686A8007F7D42078400760D5E8690027C00008D4E8696E
:2036C00040F08050E861E869012700F08050009055480168C90513D40168834641F48071C5
:2036E0000160FFF79DF9824606E000BFFFF798F9A0EB0A0064284ED8DBF80000C005F5D540
:20370000E06801280AD008B1052813D0286A20F001002862286A20F0040002E0286A40F01E
:2037200001002862E06841F2883B98B1FFF778F982460BE0286A40F004002862EEE700BF79
:20374000FFF76EF9A0EB0A0159455AD8286A8007F6D50CE0FFF764F9824605E0FFF760F987
:20376000A0EB0A0159454CD8286A8007F6D41FB1E86920F08050E861E06988B36968C1F3BB
:203780008101022945D00228C6F8608004D0FFF747F9044638E034E0FFF742F9074604E0BD
:2037A000FFF73EF9C01B02282BD828688001F7D4206AB0F5803F05D16868A16820F4003017
:2037C00008436860D4E908010843696821F4741108436860C6F86090FFF722F9044606E058
:2037E00015E000BFFFF71CF9001B022809D828688001F7D50BE000BFFFF712F9001B022817
:2038000002D90320BDE8F88F28688001F4D40020F8E70120F6E700000010024000004242D2
:203820008004424230020020007000404FF0E0210428086903D020F004000861704740F06A
:203840000400FAE7704710B5401EB0F1807F01D3012010BD4FF0E02460610F21601701F0AB
:2038600049FD0020A06107202061002010BD10B5FFF7E8FF10BD10B590F83C20012A25D014
:20388000012280F83C20CA688C6822F4407222434C6822F4806222430C6822F4006222437C
:2038A0000C6922F4805222434C6922F4005222438C6922F48042224322F4004102680023AE
:2038C0002143516480F83C30002010BD022010BD30B590F83C20012A20D0012280F83C2034
:2038E000022380F83D3003685C6824F070045C6003685C680D682C435C6003689C6824F0F9
:2039000080049C6003689C6849680C439C6080F83D20002180F83C10084630BD022030BDB8
:2039200010B504460068042201F0EBFF2068416C41F4004141642068016841F0010101603A
:20394000002010BD70B5044690F83C000D4601280DD0012684F83C60022084F83D0042B1E1
:20396000042A18D0082A2AD00C2A4DD139E0022070BD206801F0DAFF2068816941F008014B
:2039800081612068816921F004018161206881692A69114311E0206801F0F8FF20688169AF
:2039A00041F4006181612068816921F480618161206881692A6941EA0221816124E0206884
:2039C00002F01AF82068C16941F00801C1612068C16921F00401C1612068C1692A69114352
:2039E00011E0206802F03CF82068C16941F40061C1612068C16921F48061C1612068C16942
:203A00002A6941EA0221C16184F83D60002084F83C0070BD10B5040003D094F83D0010B15F
:203A200007E0012010BD002084F83C00204600F00CF8022084F83D00211D206801F010FFDE
:203A4000012084F83D00002010BD704710B504460068012201F04AFF08492068884202D09F
:203A60000749884203D1416C41F4004141642068016841F001010160002010BD002C0140B1
:203A80000034014070B5044690F83C00012818D0012584F83C50022084F83D00204602F00C
:203AA00007F82068C16821F04001C1602068C16821F48041C16084F83D50002084F83C005A
:203AC00070BD022070BD704770B5026804461068D168536910F00F0F50D003F0010501F441
:203AE000907635435DD0C20705D0CA0503D5E26B42F00102E263420705D5DA0703D0E26BEB
:203B000042F00202E263820705D5DA0703D0E26B42F00402E263020705D5DA0703D0E26B65
:203B200042F00802E263E26B002A33D0800604D5880602D5204602F0C1F820684069E16B38
:203B4000C0F38010090700D428B3204602F09FF82068416949061AD5416921F04001416166
:203B6000606BA0B11B494163606BFEF763FB002810D0606B416BBDE870400847830610D572
:203B80008B060ED52046BDE8704002F097B82046FFF799FF70BD2046FFF795FF0020E06341
:203BA00070BD030606D50B0604D52046BDE8704002F088B94006F3D54806F1D5D16820465B
:203BC00021F04001D160202184F8391000F0A5F970BD0000D95B000870B5040004D094F8DC
:203BE0003900002510B106E0012070BD84F83850204600F023F8242084F839002068C16853
:203C000021F40051C160204602F0A4F82068016921F4904101612068416921F02A014161DF
:203C20002068C16841F40051C160E563202084F8390084F83A00002070BD00002DE9F0479F
:203C400086B0002400940194029403940546DFF858C10368554802210322012780264FF01C
:203C600020084FF01009634546D1C36943F40033C361C36903F400330493836943F0040338
:203C800083618069DFF828A100F0040004900420CDE90001039269465046FEF7BFFD0820A1
:203CA0008DE8910069465046FEF7B8FD424F4148C7E90004C7E902463C61C7E90548384631
:203CC000FC61FEF773FC6F637D6244373948C7E902463C617C61BC611430FC61C7E900098D
:203CE0003846FEF763FC2F630022114626207D62FFF76CFA26204DE0DFF8C0C0634550D1D3
:203D0000C36943F48023C361C36903F480230493836943F0080383618069DFF8A4A000F01A
:203D2000080004904FF48060CDE90001039269465046FEF773FD4FF400608DE89100694676
:203D40005046FEF76BFD1C4F1A4888373C38C7E90004C7E902463C61C7E905483846FC614F
:203D6000FEF724FC6F637D6244371248C7E902463C617C61BC615038FC61C7E900093846FD
:203D8000FEF714FC2F630022114627207D62FFF71DFA2720FFF70FFA2868C16841F010019F
:203DA000C16006B0BDE8F0870044004000100240000801406C000240B003002000480040E8
:203DC000000C0140F8B5044690F83A0020283CD1C1B3BAB394F83800012836D0012084F817
:203DE0003800A162A2850025E563222084F83A00636B17489862636B1648D862636B164843
:203E00001863606B134645630846666B216802463046091DFEF70CFC2068016841680091A7
:203E200084F83850C16841F48071C1602068416941F0010141612068416941F040014161C1
:203E40000020F8BDFFE70120FBE70220F9E70000335C00086F5C0008E95B0008704770477E
:203E60002DE9F843044690F839001F4616460D46202850D1A5B19EB194F8380001284AD0BD
:203E8000012084F838004FF00008C4F83C80212084F83900FEF7C4FDA6848146E68426E081
:203EA0000120BDE8F883E08C401EE084A0684B46B0F5805F4FF000024FF080012046009778
:203EC00003D002F030F8E8B90DE002F02CF8C8B928882168C0F308004860206908B16D1C69
:203EE00005E0AD1C03E0216815F8010B4860E08C0028D8D14B46002240212046009702F0A7
:203F000012F808B10320CCE7202084F8390084F838800020C5E70220C3E77047FEE70000AB
:203F20000148FEF785BD00001C0300200148FEF7E7BD00001C03002010B5406A01680A6857
:203F400022F480620A6000214185426B5163826B516390F83D302022602B80F83D2080F807
:203F60003E1007D001680A6822F001020A60FEF7BFFE10BD016401680A6822F001020A6084
:203F8000FEF754FD10BD000070B590F83D10044600252026006829292DD02A292BD094F8CE
:203FA0003D10602904D04168090501D484F83D60256384F83E50016821F400610160206858
:203FC0004168090537D5416821F400614160606B344990F82120012A12D04163606BFEF7DC
:203FE00029F938B32068016821F00101016084F83D60606B1CE02563282184F83D10DAE714
:20400000A06B4163A06BFEF715F998B120684169C943490604D40169606A421C626201706E
:204020002068016821F00101016084F83D60A06B416B88470FE094F83D1060291DD0416994
:20404000C943490604D40169606A421C626201702046FEF74DFE94F83D0028280CD1206C3E
:20406000400709D51048E062256384F83D6084F83E502046FEF7C2FE70BD84F83D602564EC
:204080004169C943490604D40169606A421C626201702068016821F0010101602046FEF7BC
:2040A000C5FCD8E7393F00080000FFFF30B51D4C85B0A06940F00800A061A069002500F01F
:2040C000080004904FF4406000901220CDE901050320039069461448FEF7A0FBE06940F415
:2040E0008000E061E069114900F480000490104801601049C0E901154FF48041C0E9035182
:2041000045618561C5610562206940F480002061206920F4800020610548FEF7EBFD05B04B
:2041200030BD000000100240000C0140005800401C030020400D030001684A69D243520544
:204140000CD46FF480624A6104210164002140F8301F202242730173012070470020704743
:2041600010B5C26A448D2F4B0168032C03D0448D022C15D00AE0042A03D0082A01D09A42EA
:2041800003D10A6822F480620A6001680A69416A4B1C43620A70418D491E4185002010BD82
:2041A000042A12D0082A10D09A420ED0022A0A6802D022F4806201E042F480620A600168EF
:2041C0004A6822F440724A6008E04A6822F440724A6001680A6842F400720A6001680A69E6
:2041E000416A4B1C43620A70418D491E418501680A69416A4B1C43620A70418D491E41858B
:20420000202180F83D100021016390F83E2080F83E10402A02D0FEF7F2FDBFE7FEF796FF17
:20422000BCE700000000FFFF10B590F83D1022294CD1418D032909D901680A69416A4B1C11
:2042400043620A70418D491E41853FE0022909D0032907D0C16A022901680A6818D022F4EF
:20426000806217E0C16A022901680A6807D022F480620A6001680A6842F4006201E042F471
:2042800080620A600068416821F4806141601DE042F480620A6001684A6822F4E0624A608E
:2042A00001680A69416A4B1C43620A70418D491E4185202180F83D100021016390F83E2085
:2042C00080F83E10402A03D0FEF799FD002010BDFEF73CFFFAE72DE9F84F0446C06A1E461D
:2042E00092460D4621680A6842F480620A60042807D0012805D010F5803F02D0206B1128BB
:2043000004D12068016841F4807101604FF001185346002241462046009600F0EAFAB8BB73
:20432000206908F10109B0F5804F12D00620216800EAD51747F0F00008613346524608F17C
:204340000701204600F006FB38B1206C04282FD01EE0E8B240F001001FE02168E8B208610A
:20436000334652464946204600F0F4FA0028ECD12068416981690091016841F480710160D7
:204380005346002241462046009600F0B2FA10B10320BDE8F88F47F0F100216808613346A0
:2043A00052464946204600F0D5FA0028CDD1F0E70120EEE7F8B50446C06A1E460D461746E9
:2043C000042807D0012805D010F5803F02D0206B122804D12068016841F4807101601346DB
:2043E00000224FF001112046009600F082FAA0B92069B0F5804F12D00620216800EAD5102C
:2044000040F0F000086133463A460E49204600F0A1FA38B1206C042811D00320F8BD05F083
:20442000FE0000E0E8B221680861064933463A46891F204600F08EFA0028EBD1F8BD01208A
:20444000F8BD00000800010010B5C26A90F83D10212921D1418D49B1416A4A1C42620268B5
:2044600009781161418D491E418515E020230021042A13D0082A11D012F5803F0ED00268C3
:20448000546824F4E06454601122026380F83E1080F83D30FEF7B4FC002010BD0268546855
:2044A00024F4E06454600268146844F400741460016380F83D3090F83E2080F83E10402A87
:2044C000E8D1FEF744FEE7E710B590F83D1090F83E30C26A048D24B1212934D0402B30D043
:2044E00074E02129FAD120230021042A13D0082A11D012F5803F0ED00268546824F4E064A5
:2045000054601122026380F83E1080F83D3000BFFEF776FC5AE00268546824F4E06454600E
:204520000268146844F400741460016380F83D3090F83E2080F83E10402AE9D1FEF707FE62
:2045400044E0222942D1418D21B190F83E10402906D032E00068416821F48061416035E055
:20456000016D31B1016D012911D0016D022915D02CE0C16C0129816C02D0C1F3072108E00E
:204580000268C9B21161016D891C01651EE0816CC9B202681161016D491CF6E790F83D1084
:2045A000222904D090F83D10212906D00EE00068016841F48071016008E0416A4A1C426204
:2045C000026809781161418D491E4185002010BD78B590F83E50C26A046B90F83D60002370
:2045E0000168222E06D1066D0EB9402D02D0056D25B107E04869886900901CE00569B5F53D
:20460000404F1AD0458D85B3458D012D20D0428D022A4AD00A6842F480620A6001684A6803
:20462000120503D54A6842F480524A6001684A69896900910365002078BD4A698A69009293
:204640000A6842F480720A60016D491C0165F2E712F5803F0AD0042A21D0082A1FD0122C26
:204660001DD0C26A022A09D114E00BE00A6822F480620A6001684A68120503D50A6822F4D6
:2046800080620AE04A698A6900920A6842F400720A60CFE70A6842F480620A60C6E70A68C9
:2046A00022F480620A600168ECE7C26A022A0A680BD042F400620A6001684A698A69009214
:2046C0000A6822F480620A6006E042F480620A6001684A698969009101684A681205A9D54F
:2046E0004A6842F480524A60A4E790F83E10402909D00169B1F5804F10D0016D99B1016DCE
:20470000012915D01CE0016D19B9416C01F0FE0114E0416CC9B241F001010FE090F83D109E
:204720002129F6D1F1E7416CF02201F4407103E0416CF12201F4407142EAD111006801610A
:20474000002070472DE9F04190F83D40C26A00231C4F202601686FF48065042A01D0082A54
:2047600001D1282C05D0212C17D04D610020BDE8F081C7624A6822F4E0624A6001684D6132
:2047800001680A6822F480620A60036380F83D6080F83E30FEF732FBE8E7C76221220263B9
:2047A00080F83D6080F83E304A6822F4E0624A6001684D6101680A6822F480620A60FEF701
:2047C000C9FCD3E70000FFFF38B590F83D2001684B6823F4E0634B60036800215C69009484
:2047E0001C6844F001041C6003681C6824F480641C6003685C6824050BD590F83D40222C8E
:204800002BD090F83D402A2C27D0446B246864684485448DE4B15C69E443640707D41C695E
:20482000436A5D1C45621C70438D5B1E438503685C69E443640607D41C69436A5D1C456220
:204840001C70438D5B1E4385036C43F004030364036C23B1FFF798FB1FE0846BD6E72023F1
:20486000282A09D02A2A07D0292A05D0046B222C0CD0222A0AD010E0094AC262016380F8B8
:204880003D3080F83E10FEF7B9FA06E0016380F83D3080F83E10FEF75CFC002038BD0000E6
:2048A0000000FFFF70B516460D4604461AE02046FFF742FC08B1012070BD681C12D025B105
:2048C000FEF7AEF8801BA8420CD954F8400F40F0200044F81009002020602021617320734B
:2048E000032070BD20684069C0434007DFD4002070BD2DE9F0471E4690460D460446C1F315
:204900000747DDF8209012E0701C10D02EB1FEF787F8A0EB0900B04209D9002044F8300F10
:2049200020216173A07320730320BDE8F0872068012F0AD0806925EA00000004000C06D00D
:2049400000214145E0D00020EFE74069F3E70121F7E700002DE9F0479A4691460D460446E6
:2049600000264FF02008C1F307472AE020684069C043400512D42068016841F40071016047
:2049800021686FF48060486104202064266384F83D8084F83C600120BDE8F087B9F1FF3FFB
:2049A0000FD0B9F1000F05D0FEF73AF8A0EB0A01494506D944F8306F84F80D8026730320C0
:2049C000EAE72068012F07D0D0F8180025EA00000004000CE0D0C9E74069F7E72DE9F0414A
:2049E000002590460E460446202721E04069C043C0060CD421686FF01000486125642563D2
:204A000084F83D7084F83C500120BDE8F0812EB1FEF706F8A0EB0800B04209D954F8400F5A
:204A200040F0200044F80409677025700320ECE720684169C9434906D8D40020E5E770B531
:204A400016460D4604461AE02046FFF775FB08B1012070BD681C12D025B1FDF7E1FF801BE5
:204A6000A8420CD954F8400F40F0200044F8100900202060202161732073032070BD206807
:204A80004069C0430006DFD4002070BDF0B54843DDE906540111059E2768002906DAC1F115
:204AA0000040874209DA4FF0004007E005DD6FF00040A0EB010C674500DC78186168014465
:204AC00041F30F30984201DD2B8004E0B04201DA2E8000E028802B88181A00B25043C4E942
:204AE0000001F0BD2DE9F04788B001F043F8402268496948FFF766F9674801F0BDF8FDF7F5
:204B00007BFEFCF7D7FF654C06A92088FDF7F6F8BDF81800A4F11C07A0F58051A4F10E08D3
:204B200008390BD05EA001F047FA0026C6EBC60407EB44056879032875D07CE062A001F0AD
:204B40003BFA608805A9FDF7D9F8694D694EBDF8140025F8CE0F26F8CE0FA08805A9FDF7D0
:204B6000CDF8BDF81400A881B0810026A246B9460AEB061505A9E888FDF7C0F8C6EBC607E8
:204B800009EB4704BDF814102171288905A9FDF7B5F8BDF81400E080688905A9FDF7AEF809
:204BA000BDF814002081A88905A9FDF7A7F8BDF814006081E88905A9FDF7A0F808EB470783
:204BC000BDF814103971288A05A9FDF797F8BDF81400F880688A05A9FDF790F8BDF8140049
:204BE0003881A88A05A9FDF789F8BDF8140000B27881B7F90810B7F906303A79CDE9031009
:204C0000CDE90123B4F90A000090B4F90830B4F906202179384801F0CFF9761C16F0FF064B
:204C2000A6D032E0FFE7B5F90A20B5F90810B5F9060001F0ABFD08EB440428716079032843
:204C400007D1B4F90A20B4F90810B4F9060001F09DFD20710DF10409B4F90A30B4F908204A
:204C6000B4F90610C0B289E80F00B5F90A000090B5F90830B5F9062029791F4801F09CF9EE
:204C8000761C16F0FF063FF451AFFDF76BFD08B0BDE8F0871408002070030020040200201F
:204CA0005573696E672074686520636F6E66696775726174696F6E2066726F6D20636F6EC1
:204CC0006669672E680D0A005573696E672074686520636F6E66696775726174696F6E20D2
:204CE00066726F6D20454570726F6D0D0A0000004806002038000020E882000806484FF4B8
:204D00007A72514290F8FE30044813B9044B93F8FE3002824182704738000020CC010020FB
:204D200048060020F0B5B0F90040D3F800C04FF400477E1EA4EB2C44F543BC4201DB34463B
:204D400002E0AC4200DA2C4601FB04C44FEA244CA2F800C01C60B0F902405868A4EB204456
:204D6000BC4201DB344602E0AC4200DA2C4601FB0400011451805860F0BD00002DE9F04131
:204D80003F4F86B0B86940F40070B861B8693E4C00F4007004903B48206080150025C4E964
:204DA00002056561052626614FF440206560E0612046FDF74DF93548416841F4802141608E
:204DC0004FF4C020039003A92046FDF791F80B204FF00108CDE90008694602952046FDF7BD
:204DE000B9F80220CDE900506946CDF808802046FDF7B0F80E200090032001906946204655
:204E0000FDF7A8F80C2000900420019069462046FDF7A0F8072002901020CDE90006694698
:204E20002046FDF797F820688168194A114381602068816841F001018160786940F00100E9
:204E40007861786900F00100049012488560C6600C494C31016104F50171416140F6A22174
:204E60008160816841F001018160002211460B20FEF7ACF90B20FEF79EF906B0BDE8F08193
:204E80000010024000240140BC0200200000014000018000000002402DE9FF4126488169CB
:204EA00041F4806181618069254C00F4806003902248206080150025C4E9020565610526F0
:204EC00026614FF460206560E0612046FDF7C0F802950A200125CDE9000569462046FDF7C5
:204EE00039F802950D200225CDE9000569462046FDF730F80F200327CDE90007694620467F
:204F0000FDF728F80420CDE9005069462046FDF721F8CDE9007669462046FDF71BF8206861
:204F2000816841F4807181602068816841F001018160BDE8FF81000000100240002801401C
:204F4000EC0200202DE9F04F734885B0816941F004018161816901F004010491816941F06C
:204F600008018161816901F008010491816941F01001816180690026202700F010000196D2
:204F8000022400970296CDE9034069466348FDF745FC4FF0400B69466048CDF800B0FDF7EA
:204FA0003DFC4FF0800869465C48CDF80080FDF735FC6002009069465948FDF72FFCA00231
:204FC000009069465648FDF729FC4FF4805969465348CDF80090FDF721FC012569465148A1
:204FE000CDF800900295FDF719FC69464D4802960094FDF713FC0426CDE9006569464748C6
:20500000FDF70CFC4FF0100969464648CDF80090FDF704FC694643480097FDF7FFFB0320D4
:20502000CDE9005069463E48FDF7F8FB69463D480095FDF7F3FB4FF0080A69463848CDF85E
:2050400000A0FDF7EBFB694635480094FDF7E6FB69463348CDF80090FDF7E0FB69463048CC
:205060000097FDF7DBFB69462D480096FDF7D6FB69462C48CDF800A0FDF7D0FB69462948E9
:205080000096FDF7CBFBCDE900B469462448FDF7C5FB69462248CDF80080FDF7BFFBE60194
:2050A00069461F480096FDF7B9FB69461D48CDF80080FDF7B3FB694618480095FDF7AEFB60
:2050C000694616480094FDF7A9FB694615480096FDF7A4FB2002009069461248FDF79EFB1A
:2050E0006002009069460F48FDF798FB2003009069460A48FDF792FB60030090694607480B
:20510000FDF78CFBA003009069460448FDF786FB05B0BDE8F08F000000100240000C0140F9
:2051200000100140000801402DE9F04F6C4897B0816941F400618161816901F4006115913D
:20514000816941F4005181618069674D00F4005015906448002420274FF4FA6885E89101BC
:205160002C616C612846AC61FEF754FC1020CDE90E040EA92846FEF7ABFB4FF060094FF076
:20518000080ACDE90094CDE9024A4FF4007B0494CDE9054B002269462846FEF7D3FB04222D
:2051A00069462846FEF7CEFB082269462846FEF7C9FBB80107904010CDE908043020CDE9AC
:2051C0000A040C9407A928460D94FEF754FB474805F1400686E89101346174613046B4615E
:2051E000FEF718FC8020CDE90E700EA93046FEF76FFB0520CDE9100410A93046FEF742FCF5
:205200003A49502024310860CDE90094CDE9024A0494CDE9054B002269463046FEF792FB2B
:20522000042269463046FEF78DFB082269463046FEF788FBB80107904010CDE9080430202D
:20524000CDE90A040C9407A930460D94FEF713FB26484430016821F4004101602148443041
:20526000016821F40041016000213046FEF7EEFB04213046FEF7EAFB08213046FEF7E6FBAF
:2052800000213046FEF74CFB04213046FEF748FB08213046FEF744FB00212846FEF7D6FB40
:2052A00004212846FEF7D2FB08212846FEF7CEFB00212846FEF734FB04212846FEF730FBDE
:2052C00008212846FEF72CFB3168012008632868016841F00101016017B0BDE8F08F00007E
:2052E00000100240002C01403C02002000340140FEE770470907090E002806DA00F00F0052
:2053000000F1E02080F8141D704700F1E02080F80014704710B5FEF7C9FE00F00BF801286B
:2053200001D0002010BD024903204870012010BD3801002010B50E4CF020022120705520EB
:205340006070204600F09CF8002810D00A20FDF7A7F9FB202070002060700221204600F0B9
:205360008FF8002803D00A20FDF79AF9012010BD3B0100202DE9F0470026384C0125374616
:205380006078AA46B14688B1012804D002280DD003285BD111E0A078411CA170642859D985
:2053A000FFF7B8FF054684F802904AE0FFF7B2FF050046D184F801A04CE028492748C91CEC
:2053C000C01C81F80090012100F05AF800B900250320FDF765F9214948460C318146C85518
:2053E0007F1CFFB28846062FF8D31C4806210C3000F036F800B900250320FDF751F900214E
:205400004046425C491C3244C9B296B20629F8D3D6B1A6F5A061FA3916D015B1A168032999
:205420000FD900214A464254491CC9B20629FAD37F210170802188F8011084F800A00220E0
:205440006070012D02D005E00025EAE7C4F8089084F800906078BDE8F087000038010020F4
:2054600008B5642200920B460246A4210348FDF7C9FC08B1002008BD012008BD1C03002032
:2054800008B5642200920B460246A4210348FDF7C1FD08B1002008BD012008BD1C03002019
:2054A0002DE9F04300FB02FCDDE90A54DDE90776DDF824808946BCF1000F06DACCF1004161
:2054C000414509DD4FF0004108E005DD6FF00041A1EB0C02424501DB0CEB0801227902B12B
:2054E000236062790AB1002200E00A4600FB09F023684FF400491A44C01247F6FF7CC9F194
:205500000003484501DB604602E0984200DA18464FEA224800EB48004010484501DB604650
:2055200002E0984200DA18460FFA80FCBC4501DD012300E00023B44502DA4FF0010801E0EE
:205540004FF000080BB12F8006E0B8F1000F01D02E8001E0A5F800C04FF0FF30002901DACC
:20556000014605E002DD4FF0010101E04FF00001BCF1000F05DB02DD4FF0010001E04FF0E3
:205580000000814204D153EA080301D0012000E000206071002020712260BDE8F0832DE907
:2055A000F0438946DDE90A54DDE9077600FB02F1DDF82480002906DAC1F10042424509DDB1
:2055C0004FF0004C08E005DD6FF0004CACEB0102424501DB01EB080CA17801B12380E17807
:2055E00009B1002104E04FEA2C410CEB11410914228800FB09F011440BB2C21247F6FF71AF
:205600004FF40048C843424501DB0A4602E0824200DA024602EB43025210424501DB0A4632
:2056200002E0824200DA024611B2B94201DD012200E00022B14202DA4FF0010801E04FF0AA
:2056400000080AB12F8005E0B8F1000F01D02E8000E029804FF0FF35BCF1000F01DA2846BB
:2056600005E002DD4FF0010001E04FF00000002905DB02DD4FF0010501E04FF00005A842CA
:2056800004D152EA080201D0012000E00020E0700020A0702380BDE8F0832DE9F04300FB7E
:2056A00002FCDDE90A54DDE90776DDF824808946BCF1000F06DACCF10041414509DD4FF0F8
:2056C000004108E005DD6FF00041A1EB0C02424501DB0CEB080122790AB11A042260627951
:2056E0000AB1002200E00A4600FB09F023684FF400491A44C01247F6FF7CC9F10003484560
:2057000001DB604602E0984200DA18464FEA224800EB48004010484501DB604602E0984222
:2057200000DA184603B2BB4202DD4FF0010C01E04FF0000CB34202DA4FF0010801E04FF0EF
:205740000008BCF1000F01D02F8005E0B8F1000F01D02E8000E02B804FF0FF35002901DAE7
:20576000284605E002DD4FF0010001E04FF00000002B05DB02DD4FF0010501E04FF0000543
:20578000A84204D15CEA080C01D0012000E000206071002020712260BDE8F0837047704774
:2057A00010B5FDF7D9FCBDE81040FEF760B830B595B00224012004900094102005900025D6
:2057C0004FF46010CDE9085007946846FDF7ACFE0AA90F2081E831006002CDE90D05022158
:2057E0000AA8FDF79BFD600311900F940FA8FDF71FFDFDF73DFE4FF47A71B0FBF1F0FEF71F
:2058000022F80420FEF712F800221146501EFDF7DDFC15B030BD00000D48016841F00101F4
:20582000016041680B4A1140416001680A4A11400160016821F480210160416821F4FE016B
:2058400041604FF41F0181600449C00308607047001002400000FFF8FFFFF6FE08ED00E024
:20586000F0B502681C4B1D4D1D4E1E4F1E4C4FF0804C984209D0A04207D0604505D0A8422B
:2058800003D0B04201D0B84204D122F0700E4A6842EA0E02984209D0A04207D0604505D03F
:2058A000A84203D0B04201D0B84203D122F44075CA682A4322F080054A692A4302608A6825
:2058C000C2620A688262984201D0A04201D10969016301214161F0BD002C014000040040F7
:2058E00000080040000C00400034014010B50123046A8B409C430462036A8A401343036246
:2059000010BD10B50423046A8B409C430462036A8A401343036210BD10B5846842EA03228F
:2059200024F47F440A432243826010BDF0B5026A22F001020262036A42688469124E24F029
:2059400073050C682C4323F002058B682B430D4DA84201D0B04205D123F00807CB683B43C1
:2059600023F00403A84201D0B04205D14D6922F4407215438A692A43426084614968416378
:205980000362F0BD002C014000340140F0B5026A22F010020262026A436884690D6824F4E9
:2059A000E64444EA05248D6822F0200242EA05120F4D104EA84201D0B04206D1CF6822F073
:2059C000800242EA071222F04002A84201D0B04207D14D6923F4406343EA85038D6943EADF
:2059E000850343608461496881630262F0BD0000002C014000340140F0B5026A22F48072F6
:205A00000262026A4368C46922F4007224F073050C68124E2C438D6842EA05220E4DA842FA
:205A200001D0B04206D1CF6822F4006242EA072222F48062A84201D0B04207D14D6923F47E
:205A4000405343EA05138D6943EA05134360C4614968C1630262F0BD002C014000340140A3
:205A600030B5026A22F480520262046A4268C3690D6823F4E64343EA05238D6824F40054DA
:205A800044EA0534084DA84202D0084DA84204D14D6922F4804242EA85124260C3614968B2
:205AA0000164046230BD0000002C01400034014030B403689A6822F070044A68224322F04C
:205AC00007040A6822439A604A6812F00F0F1FD11211082A1CD2DFE802F01B1B1B1B0B1D98
:205AE00023040B69D1E90221006830BCFFF714BF0268136A146A24F00104146202689469B6
:205B0000096924F0F00444EA011191610068036230BC70470A698968006830BC00F006B803
:205B20000A698968006830BC00F011B810B5036A046A24F001040462846924F0F00444EAB2
:205B4000021423F00A020A438461026210BD10B5036A23F0100303628369046A23F47043CC
:205B600043EA023224F0A00343EA01118261016210BD0000154808B5416941F00101416122
:205B80004069002200F00100009011461020FDF71DFB1020FDF70FFB002211461120FDF75A
:205BA00015FB1120FDF707FB0A48094901604FF4E1314160002181600C22C160C0E90412A3
:205BC0008161C161BDE80840FEF706B800100240004400407003002010B5406A0021C185E2
:205BE000C184FDF770FF10BD70B5446A2068406994F83910C0F3C0100025212904D118B1C7
:205C0000E584204600F051F82068406994F83A10C0F38010222904D118B1E585204600F089
:205C200036F8E06B40F01000E0632046FDF74BFF70BD10B50146406A09680968890613D489
:205C40000021C1850168CA6822F48072CA6001684A6922F001024A6101684A6922F04002C4
:205C60004A61202180F83A10FEF7F8F810BD10B5406AFEF7F4F810BD0168CA6822F4807204
:205C8000CA600068416921F00101416170470168CA6822F49072CA6001684A6922F001024E
:205CA0004A61202180F83A1070470168CA6822F0C002CA60202180F83910704710B590F8E0
:205CC0003A10222901D0022010BD8168B1F5805F11D00169002901681FD0496801F07F0311
:205CE000816A4A1C82620B70C18D491E0904090CC18518D02BE00269816A002A0268526840
:205D000005D0D2B20A80816A491C8162ECE7C2F308020A80816A891CF7E74A68816A4B1CDF
:205D200083620A70E0E70168CA6822F02002CA600168CA6822F48072CA6001684A6922F049
:205D400001024A61202180F83A10FEF787F8002010BD00002DE9F041044600680169E26884
:205D600021F44051114301612169A0680843616908432168CA6841F20C639A430243CA602C
:205D800020684169A26921F44071114341614C4920686425322688423CD1FDF77FFB00EBDC
:205DA000C00101EB001061688900B0FBF1F7FDF775FB00EBC00101EB00106168B0468900ED
:205DC000B0FBF1F0B0FBF5F06FF01801484307EB800106EB0110B0FBF5F000F0F006FDF7C5
:205DE0005DFB00EBC00101EB001061688900B0FBF1F0B0FBF5F006EB0016FDF74FFB00EB05
:205E0000C00101EB001061688900B0FBF1F7FDF745FB3BE0FDF732FB00EBC00101EB0010C8
:205E200061688900B0FBF1F7FDF728FB00EBC00101EB00106168B0468900B0FBF1F0B0FB3F
:205E4000F5F06FF01801484307EB800106EB0110B0FBF5F000F0F006FDF710FB00EBC001C4
:205E600001EB001061688900B0FBF1F0B0FBF5F006EB0016FDF702FB00EBC00101EB001018
:205E800061688900B0FBF1F7FDF7F8FA00EBC00101EB001061688900B0FBF1F0B0FBF5F021
:205EA0006FF01801484307EB800108EB0110B0FBF5F0216800F00F0030448860BDE8F081DE
:205EC0000038014090F83910212901D0022070478168B1F5805F016A0BD04A1C026202689C
:205EE00009785160C18C491E0904090CC1840ED017E009880268C1F3080151600169002984
:205F0000016A02D0491C0162ECE7891CFBE70168CA6822F08002CA600068C16841F04001C6
:205F2000C160002070472DE9F041984617460E460446069D1DE0681C1BD02DB1FCF770FDFC
:205F4000A0EB0800A84214D92068C16821F4D071C1602068416921F001014161202084F80C
:205F6000390084F83A00002084F838000320BDE8F0812068006836EA000004D00020B84227
:205F8000D9D00020F3E70120F9E7000008B50848FDF79AFD06480068C168C90606D50168D3
:205FA00040680090BDE8084001F066BD08BD000070030020FEE700000FB4054B10B503A9E7
:205FC000044A029800F0DAF810BC5DF814FB0000A56A0008340200200121FAF777BA002115
:205FE0000846FAF717B900002DE9F04D0D4614464FF07F41B1EB440F9EBF4FF0FF3129604F
:20600000BDE8F08D4FF0004040EA0421C4F3C750783810F01F024A4B4FEA601CC2F12006CE
:206020007B44C4F3C750A0F178004FEA601003EB800053F82C3008BFD0E901C612D0D0F81B
:2060400004C093402CFA06F73B4387680CFA02FC27FA06F8C06807FA02F2F0404CEA080C5F
:2060600042EA0006A3FB0132ACFB01C0A6FB016101EB0C068E4234BF4FF0010C4FF0000C5A
:20608000C1186144BCF1000F02D0814202D903E0814201D2012000E00020104400F1200255
:2060A0004FEA92188006CA0C40EA42304F03C5F80080FAF717FA82463846FAF7E9F86FF0FD
:2060C0001201FAF703FA07463046FAF7E1F86FF02501FAF7FBF9834639465046FAF76DF993
:2060E0005946FAF76AF900F500666FF30B0651463046FAF7B4F93946FAF7B1F95946FAF78A
:20610000B1F91049FAF754F807460F493046FAF74FF83946FAF751F907460C493046FAF729
:2061200047F83946FAF749F914F0004F08BFBDE8F08DC8F1805180F000402960BDE8F08D4D
:206140005C220000DB0FC92F22AAFD290000C92F02E008C8121F08C1002AFAD170477047E6
:20616000002001E001C1121F002AFBD1704700000149086070470000380200202DE9FF4F57
:206180008BB09A460F460446002606E025280BD052460D999047641C761C20780028F5D164
:2061A0000FB03046BDE8F08F0025A94601227D4900E0054314F8013F203B02FA03F0084281
:2061C000F7D120782E2817D114F8010F45F004052A280ED06FF02F022078A0F1300109297B
:2061E0000AD809EB890102EB410100EB0109641CF2E757F8049B641C20786C280DD004DC6B
:206200004C2812D06A2811D104E074280DD07A280CD10AE045F4001507E0617845F4801512
:20622000814202D1641C05F58015641C207869283ED006DC0028B3D063280BD0642804D1AE
:2062400036E0732810D075285CD052460D999047761CA5E017F8040B8DF8000000208DF870
:206260000100E846012003E057F8048B4FF0FF3069074FF0000501D40AE06D1C4D450DDA2A
:206280008542FADB18F805100029F6D106E06D1C8542FCDB18F805100029F8D12E4404E0D3
:2062A00018F8010B52460D9990476D1EF8D277E000200A90C5F302504FF00A0B02280CD0E3
:2062C00001CFC117021E71F100020CDA0023D0EB030063EB01012D2208E0FF1D27F0070703
:2062E000F7E80201EEE72A0504D52B228DF82420012203E0EA070FD02022F7E70DF12008AD
:20630000089218E000200A90C5F302504FF00A0B022803D001CF00210022EFE7FF1D27F0BA
:206320000707F7E80201F7E75A460A9BF9F7CEFF303208F8012D50EA0102F5D1ADEB08005A
:2063400000F1200B680701D44FF00109D94502DDA9EB0B0000E000208146002506E009A875
:206360005246405D0D9990476D1C761C08988542F5DB04E0302052460D999047761CB9F194
:206380000001A9F10109F5DC05E018F8010B52460D999047761CBBF10001ABF1010BF4DCBA
:2063A000641CFAE6092801002DE9F04F87B000F073F9714EB6F90E0005287BDC6FA0FFF75E
:2063C000FBFD01F05FF9307806F11C03C0EBC00003F10E0233F8101047F6FF7909040591AC
:2063E00032F810006FEA090B00040025CA46A8462F462C46CDF800B0069037E001F042F99A
:20640000307840F6CC45C0EBC0015B4805AA1C3030F91100294600F01FFB307806AAC0EBCD
:20642000C00155482A3030F91100294600F014FB059805140698A9454FEA2048484600DBB0
:20644000284681465846AB4500DC2846834650464146C24500DB08468246009841464045AD
:2064600000DC084600900520FCF71AF902214B48FCF7C8FA28B92046641CA4B2B0F57A6F21
:20648000BCD347A0FFF798FD5A462946484600F07DF9C4B238480078C0EBC00136481C3054
:2064A00000EB41004079A0425DD003285BD000243EA000E054E0FFF77FFD3EA0FFF77CFDBD
:2064C00041465046009A00F061F9C6B22A480078C0EBC00128482A3000EB41004079B0424C
:2064E00043D0032841D0002630A000BFFFF764FD54EA06003BD0DFF880E009EB070212B2FA
:206500009EF800002146C0EBC00C0EF11C0000EB4C002B460471C2800581ABEB070424B290
:2065200044810EF12A0000EB4C000AEB07050FFA85FC0671A0F806C04546A0F80880DDF856
:206540000080A8EB07073FB247814FF001088EF807808DE85010CDE903571948FFF72CFDA7
:2065600007B0BDE8F08F17A0A3E716A0BEE717A0FFF722FDF4E70000CC010020496E707574
:20658000742063616C6962726174696F6E20737461727465642E2E2E0D0A000000080140DE
:2065A000496E707574312069732000002E2E4E4F4B0D0A00496E70757432206973200000C5
:2065C000E88200082E2E4F4B0D0A0000426F746820696E707574732063616E6E6F742062C7
:2065E000652069676E6F7265642C2063616C6962726174696F6E2072656A65637465642EC6
:206600000D0A0000034B1870034801700348027070470000020000200000002001000020FA
:2066200070B50549054D00240C7028704FF4FA70FCF736F82C7070BD020000200000002084
:2066400070B50549054D00240C7028706420FCF727F82C7070BD000002000020000000209C
:2066600070B5054600290BDB4006040E05E0E01CC0B2FFF7E5FFA41EE4B2022CF7D270BD9A
:20668000022405E0E01CC0B2FFF7DAFFA41CE4B2B4EB450FF6D970BD0848094A06490089F2
:2066A0001289801A00B200EBD0704010888100D54042C88170470000CC01002038060020CD
:2066C0000408002010B50A4C20B10020E063FCF7A7F92064FCF7A4F9216CB4F90A30E26BD7
:2066E000411A03FB0121E163A1632064084610BD4C010020F0B50379012B03D00027022B57
:2067000041D110E0B0F90010B0F90630B0F90A40C91A5143E31A1BE091FBF3F2002A1CDAEC
:2067200000224280F0BDB0F90840B0F90C60B0F90030A51B9D4203DA04EB060C9C4522DC8D
:20674000A3420DDD3444191BB0F90A3051431B1B91FBF3F49442E4DCDEE791FBF3F2E0E70B
:206760005A1BB0F906304A435B1B92FBF3F4002C01DD002105E092FBF3F48C4201DB92FB93
:20678000F3F14180F0BD4780F0BD000070B5C82390FBF3F592FBF3F60024B54209D091FBBA
:2067A000F3F592FBF3F6B54203D0904201DC914201DD08A00AE090FBF3F091FBF3F1884217
:2067C00002D1012405A001E0022408A0FFF7F4FB204670BD69676E6F7265640061206E6FAF
:2067E000726D616C20706F740000000061206D69642D72657374696E6720706F7400000023
:206800002DE9F843044602464F486946B0EB420F09D94FF0E640B0EB420F94BF00204FF07E
:20682000FF30009030E0494B22F00040834271D947492046F9F7BCFCF9F717FE8046F9F73B
:206840002CFD00F00300009042494046F9F7B0FC054641494046F9F7ABFC06463F49404693
:20686000F9F7A6FC07463E494046F9F7A1FC2146F9F7F8FD3946F9F7F2FD3146F9F7EFFDA2
:206880002946F9F7ECFD04462546009C002C45DB294614F0010F08461CD0F9F789FC064695
:2068A0003049F9F785FC3049F9F7DCFD3146F9F77FFC2E49F9F781FD3146F9F779FC29469A
:2068C000F9F776FC2946F9F778FD14F0020F1CD0BDE8F883F9F76CFC05462549F9F768FCFC
:2068E0002449F9F76AFD2946F9F762FC2249F9F764FD2946F9F75CFC4FF07E51F9F75DFD4C
:2069000014F0020F08BFBDE8F88380F00040BDE8F883FFE71046FFF767FBB4E76800B0F173
